S01800004B65795061645F496E746572727570742E73726563A2
S113000045C0000060C000005EC000005CC000008D
S11300105AC0000059C00000ABC00000FCC0000082
S11300204EC1000050C000004EC000004CC0000093
S11300304AC0000048C0000046C0000044C00000A0
S113004042C0000040C000003EC000003CC00000B0
S11300503AC0000038C0000036C0000034C00000C0
S113006032C0000030C000002EC000002CC00000D0
S11300702AC0000028C0000026C0000024C00000E0
S113008022C0000020C000001EC0000011241FBEBA
S1130090CFEFD0E1DEBFCDBF11E0A0E0B1E0EAE6F2
S11300A0F7E000E00BBF02C007900D92A231B10748
S11300B0D9F721E0A2E1B1E001C01D92A431B20759
S11300C0E1F77BD250C39CCF1F920F920FB60F92D1
S11300D011240BB60F922F938F939F93EF93FF935B
S11300E08091110180958F70F894823081F018F41A
S11300F0813031F021C0843089F08830B1F01CC0E7
S1130100E0911201F091130181E080831BC0E09122
S11301101201F091130184E0808314C0E091120174
S1130120F091130187E080830DC0E0911201F091FA
S113013013018EE0808306C0E0911201F091130157
S113014088E880832FEF8FEF98E021508040904023
S1130150E1F700C000007894FF91EF919F918F9197
S11301602F910F900BBE0F900FBE0F901F901895FC
S11301701F920F920FB60F9211240BB60F922F936A
S11301808F939F93EF93FF938091110180958F70CC
S1130190F894823081F018F4813031F020C084303A
S11301A089F08830B1F01BC0E0911201F091130185
S11301B082E080831AC0E0911201F091130185E07E
S11301C0808313C0E0911201F091130188E08083D1
S11301D00CC0E0911201F0911301108206C0E0916D
S11301E01201F091130188E880832FEF8FEF98E0DC
S11301F0215080409040E1F700C000007894FF91C6
S1130200EF919F918F912F910F900BBE0F900FBE86
S11302100F901F9018951F920F920FB60F921124F2
S11302200BB60F922F938F939F93EF93FF9380912D
S1130230110180958F70F894823081F018F4813028
S113024031F021C0843089F08830B1F01CC0E091D5
S11302501201F091130183E080831BC0E09112012D
S1130260F091130186E0808314C0E0911201F091B3
S1130270130189E080830DC0E0911201F091130114
S11302808FE0808306C0E0911201F091130188E8A9
S113029080832FEF8FEF98E0215080409040E1F76A
S11302A000C000007894FF91EF919F918F912F915E
S11302B00F900BBE0F900FBE0F901F9018951F92BA
S11302C00F920FB60F9211240BB60F922F938F93A8
S11302D09F93EF93FF938091110180958F70F89411
S11302E0823081F018F4813031F021C0843089F0FB
S11302F08830B1F01CC0E0911201F09113018BE041
S113030080831BC0E0911201F09113018CE0808383
S113031014C0E0911201F09113018DE080830DC0AF
S1130320E0911201F09113018AE0808306C0E0910C
S11303301201F091130188E880832FEF8FEF98E08A
S1130340215080409040E1F700C000007894FF9174
S1130350EF919F918F912F910F900BBE0F900FBE35
S11303600F901F90189580EC84BB90EF91BB8FEF9A
S113037087BB2FE022B999BF8ABF78940895BC0146
S113038090E015C0292F30E0FB01E20FF31F48E88D
S11303904083F901E050FF4F208123B92FEF28BBA0
S11303A0EFEFFFE83197F1F700C000009F5F943052
S11303B048F308951F93CF93DF93FC019B016031B1
S11303C087E278079CF08AE0838382838183808339
S11303D080E385BB9FEF2FEF88E091502040804061
S11303E0E1F700C0000080EF85BB4FC077239CF489
S11303F08BE0838382838183808380E785BB9FEF47
S11304002FEF88E0915020408040E1F700C00000C9
S113041080EF85BB3AC0CB019927C8EED3E0BE017B
S11304207BD1462F6383C901BE0176D1EC019927A4
S113043024E630E0B90170D1162F6283CE01B901F0
S11304406BD199276AE070E067D1962F618380832E
S1130450411102C088E883838381883819F411111B
S113046001C082838281883819F4911101C081838B
S113047080EB85BB9FEF2FEF88E0915020408040B8
S1130480E1F700C0000080EF85BBDF91CF911F91A1
S11304900895CF93DF93FC0123812A3040F448EE82
S11304A053E0249FE001259FD00D112402C0C0E039
S11304B0D0E0FC0122812A3028F4F4E62F9FC00DFD
S11304C0D11D1124FC0121812A3070F430E0A901EE
S11304D0440F551F220F331F220F331F220F331FC8
S11304E0240F351FC20FD31FFC0120812A3010F4C2
S11304F0C20FD11D44DFCE01DF91CF9108950F9338
S11305001F93CF93DF93FC01EB018A01208131819A
S11305102F3F8FE7380789F1688179816F3FAFE713
S11305207A0771F1DA018C9196EF980F943058F5AF
S11305308B3069F018F48A3031F028C08C3059F0CF
S11305408D3089F023C0A901460F571F27C0A90188
S1130550461B570B23C0269FA001279F500D369F93
S1130560500D11241BC02115310599F06115710539
S113057099F0C901D1D0AB0111C04FEF5FE70EC0B4
S11305804FEF5FE70BC04FEF5FE708C04FEF5FE748
S113059005C04FEF5FE702C04FEF5FE72FEF3FE784
S11305A0318320833983288398E8F8019083CA0132
S11305B0DF91CF911F910F910895CF93DF93CDB722
S11305C0DEB72A970FB6F894DEBF0FBECDBF88E81A
S11305D089838A838B838C838D839E012F5F3F4F16
S11305E030931301209312018E838FEF9FE7988736
S11305F08F839A878987B7DE8FEF85BB0FEF1FE75D
S113060089818A30A0F40F3F8FE7180729F0CE01C3
S11306100296B5DE0FEF1FE78C818D838B818C836F
S11306208A818B8389818A8388E889830CC08A5074
S1130630843048F4CE0102962CDF98878F83898119
S11306408E8388E8898389818F30B1F4CE01029644
S113065020DF9A878987AE014A5F5F4FBE01675FDB
S11306607F4FCE0107964BDF8C01BC01CE01029671
S1130670A1DE88E8898310C08E3071F4CE01029621
S11306807EDE8FEF9FE798878F839A87898788E834
S11306908E8389830FEF1FE720E038C0809111011A
S11306A083B9822F90E0E2E0F0E0EC0FFD1FE80F49
S11306B0F91F30813838C1F0FC01E050FF4F308120
S11306C032BBE2E0F0E0EC0FFD1FE80FF91FE08120
S11306D0F0E0EC5FFE4F808188BB8FEF9FE80197CD
S11306E0F1F700C0000007C0FC01E050FF4F80811B
S11306F082BB8FEF88BB80E791E00197F1F700C0E0
S1130700809111018695809311012F5F243030F27E
S113071087EF8093110174CF97FB072E16F4009492
S113072006D077FD08D00BD007FC05D03EF4909599
S113073081959F4F0895709561957F4F0895AA1BE9
S1130740BB1B51E107C0AA1FBB1FA617B70710F0B8
S1130750A61BB70B881F991F5A95A9F780959095EA
S10D0760BC01CD010895F894FFCF09
S113076A80402010C0F9A4B0999282D88090BF7FAB
S105077AFFF783
S9030000FC
